:1000000022C046C09BC144C043C04EC141C040C095
:100010003FC03EC03DC03CC03BC03AC039C00000FC
:10002000000036000000000037000000000038002B
:100030000202020202020102040810200102000072
:1000400004001203B90311241FBECFE5D2E0DEBFC6
:10005000CDBF20E0A0E7B0E001C01D92AD3DB207EA
:10006000E1F710E0A0E6B0E0ECE1F8E002C00590B6
:100070000D92A037B107D9F710E0C2E2D0E003C07B
:100080002197FE01B9D3C132D107D1F70BD2BAC340
:10009000B7CFCF92DF92EF92FF920F931F93CF9340
:1000A000DF936C01EB017B01E40EF51E10E000E034
:1000B000CE15DF0561F06991D601ED91FC910190BB
:1000C000F081E02DC6010995080F191FF1CFC80175
:1000D000DF91CF911F910F91FF90EF90DF90CF9024
:1000E00008953FB7F8948091B5009091B600A09123
:1000F000B700B091B80022B708B601FE05C02F3F87
:1001000019F00196A11DB11D3FBFBA2FA92F982F3D
:100110008827BC01CD01620F711D811D911D43E037
:10012000660F771F881F991F4A95D1F70895209170
:10013000BB003091BC002817390781F49091B900B9
:100140008091BA00981751F0E091B900F0E0E059C1
:10015000FF4F8081082E000C990B08958FEF9FEFC1
:1001600008952091BB003091BC002817390739F45D
:100170008FB7F8941092BA001092B9008FBF08950B
:10018000EF92FF920F931F93CF93DF93DC015C9666
:10019000ED90FC905D97E114F10479F481E090E03A
:1001A00013969C938E93129790E080E0DF91CF910D
:1001B0001F910F91FF90EF9008955196ED91FC9152
:1001C000529750968C915097982F90950FB75E96B6
:1001D0002C915E97122F127021FD6095F89420816A
:1001E000112319F1282B2083E7012197F1F728E04B
:1001F000462F50E0308160FF1AC0382B3083E70172
:100200002197F1F7BA0175956795215089F7112368
:1002100081F08081892380830FBF5C968D919C91B2
:100220000197F1F781E090E0C1CF2923DCCF39239A
:10023000E5CF9081892BEFCF2091BB003091BC009E
:100240002817390769F48091BA002091B90090E02D
:10025000805C9F4F821B910960E470E0A6D20895F4
:1002600090E080E008952091BB003091BC002817F9
:100270003907B9F49091B9008091BA00981789F0C4
:10028000E091B900F0E0E059FF4F80812091B90082
:1002900030E02F5F3F4F2F7333272093B90090E05A
:1002A00008958FEF9FEF08951F920F920FB60F9250
:1002B00011242F933F938F939F93AF93BF9380917C
:1002C000B1009091B200A091B300B091B400309110
:1002D000B00026E0230F2D3768F129E8230F03969D
:1002E000A11DB11D2093B0008093B1009093B20086
:1002F000A093B300B093B4008091B5009091B60084
:10030000A091B700B091B8000196A11DB11D8093D6
:10031000B5009093B600A093B700B093B800BF911A
:10032000AF919F918F913F912F910F900FBE0F90A2
:100330001F9018950296A11DB11DD4CF1F920F9248
:100340000FB60F9211242F933F934F935F936F93A8
:100350007F938F939F93AF93BF93EF93FF93E0911E
:10036000BB00F091BC00309749F0A685B785858524
:10037000968D91FF14C09C918923A1F4FF91EF9178
:10038000BF91AF919F918F917F916F915F914F91AD
:100390003F912F910F900FBE0F901F9018959C9139
:1003A000892361F7A389B4899C91858980958923E4
:1003B0008C93868997890197F1F7608D718DA68559
:1003C000B785558538E020E0CB010197F1F7822F02
:1003D00090E095958795282F4C91452309F020684A
:1003E000315091F7868D81FD20958091BA0090E083
:1003F00001968F7399273091B900381799F0A09121
:10040000BA00B0E0A059BF4F2C938093BA00828D00
:10041000938D0197F1F7A389B4898C919589892BE4
:100420008C93ACCF868D8160868FF1CF90E0FC01FC
:10043000E45CFF4F3491FC01EA5CFF4F2491FC0126
:10044000E05DFF4FE491EE23B9F0332329F0313022
:10045000A1F48AB58F778ABDF0E0EE0FFF1FE65D4D
:10046000FF4FA591B4918FB7611118C0F894EC912A
:1004700020952E232C938FBF0895323019F48AB51E
:100480008F7DE9CF333021F480B78F7D80BFE4CFFB
:10049000343011F78CB58F7D8CBDDECFF894EC91A4
:1004A0002E2BE8CF83E08ABD83BF789489B7826022
:1004B00089BF80E48CBD8FEF8DBD87EC80BF86B196
:1004C0008877866886B9379A1092D9001092D8003A
:1004D0001092D7001092D6001092D5001092D4003E
:1004E0008DEC90E09093DB008093DA003091CA00AD
:1004F000363020F545E550E05093D5004093D400C8
:100500004BEC50E05093D7004093D60040E950E0C8
:100510005093D9004093D8002BB720622BBF45E3FE
:1005200050E05093D2004093D10021E001C0220F4F
:100530003A95EAF72093D3000197F1F78091D8001C
:100540009091D900892B49F1E091BB00F091BC005A
:1005500080E0EE3BF80709F1309739F0A389B489C0
:100560009C918589809589238C938091DC008E7F76
:100570008093DC001092BA001092B9008EEB90E0EC
:100580009093BC008093BB00E091D100F091D20029
:1005900080819091D300892B8083BC9AC49ABB9AA6
:1005A00018E085B7877E806185BF85B7806285BF8B
:1005B00088958EEB90E040DE181619062CF48EEB31
:1005C00090E051DE8093BD008091BD00803309F43E
:1005D000C49A8091BD00813309F4C49888B38127FF
:1005E00088BB7FDDEB0188EEC82E83E0D82EE12C9E
:1005F000F12C77DD6C1B7D0B683E734068F0C114F5
:10060000D104E104F10469F281E0C81AD108E108DB
:10061000F108C851DC4FEDCFC114D104E104F1045D
:1006200041F7BFCF0F931F93CF93DF931092C10079
:100630001092C00088EE93E0A0E0B0E08093C2008A
:100640009093C300A093C400B093C50084E690E0EB
:100650009093BF008093BE001092D5001092D400FA
:100660001092D7001092D6001092D9001092D800A4
:100670001092DB001092DA006091DC006E7F6D7FDB
:100680006093DC006695617081E06827CFDE47E308
:1006900050E0FA01649181E390E0FC01249122236F
:1006A00099F030E0220F331FF901EC5DFF4FA59167
:1006B000B491F901E65DFF4F259134912FB7F8947D
:1006C0003C91632B6C932FBFFA0144914093CE0071
:1006D000FC018491E82FF0E0EE0FFF1FE65DFF4F75
:1006E000859194919093D0008093CF0006E310E021
:1006F000F8012491C0E3D0E0FE0184918823C9F081
:1007000090E0880F991FFC01EC5DFF4FA591B4911B
:10071000FC01E65DFF4F459154913FB7F8949C91E1
:10072000822F809598239C93FA019081892380835E
:100730003FBF8091DC0081FD03C061E080E076DE98
:100740001092CA00F80104910093CB00FE01C491FD
:10075000EC2FF0E0EE0FFF1FE25EFF4F85919491CA
:100760009093CD008093CC00DF91CF911F910F919A
:10077000089584E690E09093BF008093BE0080913E
:10078000BB009091BC008E5B904071F4E091D10071
:10079000F091D20090818091D3008095892380834D
:1007A0001092BC001092BB00089597FB072E16F420
:1007B000009406D077FD08D00BD007FC05D03EF49E
:1007C000909581959F4F0895709561957F4F0895FD
:1007D000AA1BBB1B51E107C0AA1FBB1FA617B70767
:1007E00010F0A61BB70B881F991F5A95A9F7809583
:1007F0009095BC01CD010895EE0FFF1F0590F49177
:10080000E02D099410E0C2E2D0E003C0FE01F4DF65
:0C0810002196C332D107D1F7F894FFCF36
:10081C0000000000C00049001C0133019700B1002A
:00000001FF
